:020000040800F2
:1000000080420020351A0108B50100083F1A010896
:10001000B7010008BB010008BF0100080000000094
:10002000000000000000000000000000C301000804
:10003000C5010008000000004B1A0108C7010008B4
:100040004F1A01084F1A01084F1A01084F1A0108E8
:100050004F1A01084F1A01084F1A01084F1A0108D8
:100060004F1A01084F1A01084F1A01084F1A0108C8
:100070004F1A01084F1A01084F1A01084F1A0108B8
:100080004F1A01084F1A01084F1A01084F1A0108A8
:100090004F1A01084F1A01084F1A01084F1A010898
:1000A0004F1A01084F1A01084F1A01084F1A010888
:1000B0004F1A0108D9010008E10100084F1A010890
:1000C0004F1A01084F1A01084F1A01084F1A010868
:1000D0004F1A01084F1A0108E90100084F1A0108D8
:1000E0004F1A01084F1A01084F1A01084F1A010848
:1000F0004F1A01084F1A01084F1A01084F1A010838
:100100004F1A01084F1A01084F1A01084F1A010827
:100110004F1A0108F10100084F1A01084F1A01088F
:100120004F1A01084F1A01084F1A01084F1A010807
:100130004F1A01084F1A01084F1A01084F1A0108F7
:100140004F1A01084F1A01084F1A0108ADA60008FE
:100150004F1A01084F1A01084F1A01084F1A0108D7
:100160004F1A01084F1A01084F1A01084F1A0108C7
:100170004F1A01084F1A01084F1A01084F1A0108B7
:100180004F1A01084F1A0108DFF80CD015F078FC5F
:1001900000480047A10100088042002000BFFEE7A0
:1001A00000F06AF90249087001E000F00AF9FCE782
:1001B00000000020704700BFFEE700BFFEE700BF61
:1001C000FEE77047704710B50B480068401C0A49AD
:1001D000086006F025FD10BD10B506F016FF10BD35
:1001E00010B507F019F810BD10B509F02EFB10BDC1
:1001F00010B509F0ECFB10BD8805002010B5924841
:10020000C089401C9049C88108468088401C00B2C3
:1002100088800846C088401C00B2C8800846008913
:10022000401C00B2088108464089401C00B2488149
:1002300008468089401C00B2888108460078012861
:1002400004D108464078401C487002E001207E49F5
:10025000087008F0ECFB10BD10B5012006F01FFD82
:1002600000EE100AB8EE400ADFED780A80EE201AA0
:10027000774880ED041A03F063FC10BD10B52DED36
:10028000028B002006F00BFD00EE100AB8EE400ACB
:10029000DFED6E0A80EE201AB0EE418A06F090FC87
:1002A00000EE100AB8EE400ADFED680A80EE201A70
:1002B000674880ED001A07F041FCB0EE480A07F0ED
:1002C000C6FE6448D0ED063AB0EE633AD0ED053A8A
:1002D000F0EE632AD0ED043AB0EE632AD0ED0C3A8A
:1002E000F0EE631AD0ED0B3AB0EE631AD0ED0A3A95
:1002F000F0EE630AF6EE003A68EE233AB0EE630AD7
:10030000554A5649564801F077FCB0EE480A01F0CC
:10031000CFF85448B0EE480A04F05DFC06F050FCFB
:1003200000EE100AB8EE400ADFED480A80EE201A0F
:10033000474880ED011ABDEC028B10BD10B52DEDC4
:10034000028B022006F0ABFC00EE100AB8EE400A69
:10035000DFED3E0A80EE201AB0EE418A06F030FC56
:1003600000EE100AB8EE400ADFED380A80EE201ADF
:10037000374880ED021AB0EE480A00F0BDFB06F0E7
:100380001FFC00EE100AB8EE400ADFED300A80EEE6
:10039000201A2F4880ED031ABDEC028B10BD10B55A
:1003A00008F0C6FA10BD10B500F06BFB10BD10B51B
:1003B0002D492E4805F05CFF08F0ADFC0AF0ECFE7C
:1003C00010BD10B52048007801283BD1284800888E
:1003D00000B228490880FFF73FFF1B48B0F904002E
:1003E000022804DB002018498880FFF747FF1648E1
:1003F000B0F90600052804DB00201349C880FFF788
:100400009DFF1148B0F908000A2804DB00200E49BE
:100410000881FFF7C4FF0C48B0F90A00142804DB78
:10042000002009494881FFF7BEFF0748B0F90C00DA
:10043000322804DB002004498881FFF7B8FF002040
:100440000149087010BD00004C07002000247449C9
:100450005C0700202C3500202C0000202800002004
:10046000240000201C350020C4310020F42B002083
:10047000980500200200002010B54FF480600AF0BB
:1004800009FF06F06BFB07F09AF906F061FC4FF4E8
:10049000C87006F0BFFF04F0FDFD08F0C4FF4FF484
:1004A000C87006F0B1FB142007F02AFC08F046FAE9
:1004B0004FF4E13009F056F900F04EFA642006F0EE
:1004C000A3FB0AF063FE08F007F880F001000D4975
:1004D00008700D48007810B908F0EBFE0AE00948F2
:1004E000007810B908F0FCFE04E00848007808B96C
:1004F00008F01AFF042008F079FA06F00BFC01203E
:1005000010BD00000C060020C40500207A06002063
:1005100038B50122FAA1FB4813F09EFC0446C4B191
:1005200000221146F6A014F090FC044614B14FF0DE
:10053000FF3038BD0022F2A1F24813F08DFC0446D2
:100540003CB10022EEA1104613F086FC6FF00100D2
:10055000EFE7EDA1ED4814F036F904463CB1002276
:10056000E7A1104613F078FC6FF00200E1E70122EA
:10057000E7A1EA4813F09BFC04463CB10022E0A14D
:10058000104613F069FC6FF00300D2E76B4640227F
:10059000E349E24813F03DFD0446009878B3DF4894
:1005A00013F096FF0122DFA1DC4813F080FC044623
:1005B0003CB10022D2A1104613F04EFC6FF00300B4
:1005C000B7E76B46C022D949D44813F022FD044650
:1005D000009848B1D14813F07BFF0022C8A1104613
:1005E00013F03AFC0120A4E7CC4813F071FF00227D
:1005F000C3A1104613F030FC6FF0030099E7FFE74A
:10060000C64813F065FF0022BDA1104613F024FC7C
:100610006FF004008DE738B50022B9A1B94813F096
:100620001BFC0446C4B100221146B5A014F00DFC19
:10063000044614B14FF0FF3038BD0022B0A1B148DC
:1006400013F00AFC04463CB10022ADA1104613F0A1
:1006500003FC6FF00100EFE7ABA1AC4814F0B3F876
:1006600004463CB10022A6A1104613F0F5FB6FF042
:100670000200E1E70A22A6A1A84813F018FC0446EC
:100680003CB100229EA1104613F0E6FB6FF0030080
:10069000D2E76B464022A249A04813F0B3FD0446BE
:1006A00074BB9E4813F014FF0A229EA19B4813F0CE
:1006B000FEFB04463CB1002291A1104613F0CCFB96
:1006C0006FF00300B8E76B46C0229849934813F0D7
:1006D00099FD04464CB9914813F0FAFE002288A116
:1006E000104613F0B9FB0120A6E78C4813F0F0FE8A
:1006F000002283A1104613F0AFFB6FF003009BE7CD
:10070000864813F0E5FE00227DA1104613F0A4FBFD
:100710006FF0040090E710B58548814BD3E90021C4
:100720009B68C0E90E1342637D4BD3E903215B69EB
:10073000C0E9111302647F48794B18330ECB08309F
:100740000EC07B4A764B24330BCB58320BC2744815
:1007500090ED0D0A764880ED190A714890ED0E0A69
:10076000734880ED1A0A7448704C1ECC54301EC079
:1007700064386E49D1E905340A69C969C0E91A3497
:1007800042660167694BD3E909141A6ADB6AC0E95A
:100790001F43C0E91D216948644BD3E90C41D3E9EB
:1007A0000E23C0E91541C0E917236049D1E911437F
:1007B0000A6CC96CC0E91A43426601675B49D1E91A
:1007C0001434D1E91621C0E91D34C0E91F2110BD40
:1007D00010B500F07FF905F01AF810BD10B5002231
:1007E000012147A014F031FB9FED550A4F4880EDE1
:1007F000040A9FED530A80ED000AB7EE000A80ED6F
:10080000080A9FED500A80ED060A9FED4E0A80ED22
:10081000020A9FED4C0A80ED0A0A9FED4B0A80ED1B
:10082000050A9FED490A80ED010AB0EE000A80ED4D
:10083000090AB7EE000A80ED070AB7EE000A80ED5C
:10084000030AB7EE000A80ED0B0AB6EE000A80ED4F
:10085000100AB6EE000A80ED0C0A9FED3C0A80ED0E
:10086000140A9FED3B0A80ED120A9FED390A80EDD4
:100870000E0A9FED370A80ED160A9FED360A80EDCD
:10088000110A9FED340A80ED0D0A9FED2E0A80EDCE
:10089000150AB7EE000A80ED200AB7EE000A80EDD7
:1008A000220AB7EE000A80ED210AB7EE000A80EDB9
:1008B000240AB7EE000A80ED260AB7EE000A80EDA2
:1008C000250AB7EE000A80ED180AB7EE000A80ED9F
:1008D0001A0AB7EE000A80ED190AB7EE000A80ED99
:1008E0001C0AB7EE000A80ED1E0AB7EE000A80ED82
:1008F0001D0AFFF790FEFFF70EFFFFF769FF10BD1F
:10090000303A0000700800202F000000C8280020A6
:1009100073656E736F722E62696E0000A0180020FE
:10092000700700207069642E62696E00B0070020B5
:100930002C350020E0050020E4280020A829002014
:100940009A99193FCDCCCC3DCDCC0C40CDCC4C3F71
:10095000CDCC4C3D9A99993E10B5FFF7D9FD044690
:10096000002C04DAFFF73AFF012051490870FFF725
:10097000D2FEFFF72DFF10BD10B504464D4894E898
:100980000E0034300EC04C4894E80E000EC04948AA
:1009900090ED190A484880ED0D0AFFF73CFE10BDA6
:1009A00010B50446434894E80E0040300EC042485B
:1009B00094E80E000C300EC03E4890ED1A0A3E48F6
:1009C00080ED0E0AFFF727FE10BD10B504463B4828
:1009D00094E80E0008300EC0374894E80E00183036
:1009E0000EC0FFF718FE10BD10B50446314894E85C
:1009F0000E0058300EC0304894E80E0024300EC06F
:100A0000FFF709FE10BD10B52D482E49D1E9163467
:100A10004A6D096E80E81C00C16001462948D0E992
:100A20001A34426E006FC1E905340A61C861254875
:100A3000D0E91E34426FD0F88000C1E909340A625F
:100A4000C8620A46204CD4E91530D4E91714C2E92B
:100A50000E14C2E90C3010461B49D1E91942D1E904
:100A60001B31C0E91042C0E912311749D1E91D42DA
:100A7000D1E91F31C0E91442C0E91631FFF7CBFDBF
:100A800010BD10B51148008820B110480088401CE6
:100A90000E4908800D4800883C2807DD00200B49DE
:100AA00008800B48007808B9FFF7ADFF10BD0000C3
:100AB000040000202C35002070070020E0050020F5
:100AC000B0070020E4280020A829002066040020A8
:100AD000B8040020B7EE000AFC4880ED180AB7EE13
:100AE000000A80ED1C0AB7EE000A80ED200A9FED97
:100AF000F80A80ED300A704710B52DED0E8BB0EE80
:100B0000408AF448D0ED000AB0EE600AB3EE0E1A47
:100B1000DFEDF10A01F0E9FFDFEDF00A80EE201AC7
:100B2000B3EE0E0A21EE000AED4880ED000AE94816
:100B3000D0ED010AF1EE600AB0EE600AB3EE0E1AD3
:100B4000DFEDE50A01F0D1FFDFEDE40A80EE201AC7
:100B5000B3EE0E0A21EE000AE14880ED010AE148F9
:100B6000007818BBDB48D0ED030AB0EE600A9FEDB9
:100B7000DE1ADFEDD90A01F0D3FFDFEDD80A80EEEF
:100B8000201A9FEDDA0A21EE000ABDEEC00A10EE2F
:100B9000100A00B200EE100AF8EEC00AD04890ED3C
:100BA000020A00EE880A80ED020A36E0CC4890ED99
:100BB000020ACF48D0ED000A30EEC00A10EE101A3B
:100BC000084614F0DAFD41EC1C0B18EE100A14F084
:100BD000D4FD41EC1E0B9FEDC70B53EC102B14F012
:100BE00049FD41EC1D0B53EC1C2B14F043FD41EC73
:100BF0001A0BBB4890ED020A10EE101A084614F0CA
:100C0000BCFD41EC1B0B53EC1A2B14F08CFC41EC9B
:100C1000190B14F0F5FDB2498860B148D0ED020A15
:100C2000B0EE600A01F0CAFFAD4880ED020AB34899
:100C3000D0ED000AAA4890ED001A70EE810AB04883
:100C400090ED001A70EEC10AB0EE600A01F0B6FF36
:100C5000AC4880ED000AA948D0ED010AA04890ED0B
:100C6000011A70EE810AA84890ED001A70EEC10AD0
:100C7000B0EE600A01F0A2FFA24880ED010A9F4891
:100C8000D0ED020A964890ED021A70EE810A98485B
:100C900090ED001A70EEC10AB0EE600A01F08EFF0E
:100CA000984880ED020A90ED000AB5EEC00AF1EE18
:100CB00010FA02DD90ED000A04E0924890ED000A7F
:100CC000B1EE400AF3EE0E0A80EE201A8D4880ED58
:100CD0002D1A90ED010AB5EEC00AF1EE10FA02DD10
:100CE00090ED010A04E0874890ED010AB1EE400A58
:100CF000F3EE0E0A80EE201A824880ED2E1A90ED57
:100D0000020AB5EEC00AF1EE10FA02DD90ED020A19
:100D100004E07C4890ED020AB1EE400AF3EE0E0AC0
:100D200080EE201A774880ED2F1ADFED780A80EEEA
:100D3000880AD0ED000A90ED031A70EEC10A90ED1A
:100D4000161AF2EE041A21EE211A60EE810A20EE44
:100D5000200A80ED0C0ADFED6D0A80EE880AD0EDE6
:100D6000010A90ED041A70EEC10A90ED1A1AF2EE23
:100D7000041A21EE211A60EE810A20EE200A80ED8D
:100D80000D0ADFED620A80EE880AD0ED020A90EDCE
:100D9000051A70EEC10A90ED1E1AF2EE041A21EE49
:100DA000211A60EE810A20EE200A80ED0E0A90EDF5
:100DB000170AD0ED000A60EE200A90ED060A00EE58
:100DC000880A80ED060A90ED1B0AD0ED010A60EE5C
:100DD000200A90ED070A00EE880A80ED070A90EDE0
:100DE0001F0AD0ED020A60EE200A90ED080A00EE1C
:100DF000880A80ED080A464890ED000AF6EE000ADF
:100E000020EE200AF3EE0E0A20EE200A3D4880ED87
:100E1000090A3F4890ED000AF6EE000A20EE200A8B
:100E2000F3EE0E0A20EE200A364880ED0A0A384812
:100E300090ED000AF6EE000A20EE200AF3EE0E0A0C
:100E400020EE200A2F4880ED0B0A90ED060AD0ED27
:100E5000090AF1EE600AB4EEE00AF1EE10FA04D2EB
:100E600090ED090AB1EE400A0FE0264890ED060A1F
:100E7000D0ED090AB4EEE00AF1EE10FA02DD90EDD1
:100E8000090A02E01F4890ED060A1E4880ED060A96
:100E900090ED070AD0ED0A0AF1EE600AB4EEE00A1E
:100EA000F1EE10FA04D290ED0A0AB1EE400A34E0F5
:100EB000144890ED070AD0ED0A0AB4EEE00AF1EE0C
:100EC00010FA27DD90ED0A0A27E00000E428002050
:100ED000CDCC4C3EF42B0020000000000000FA4373
:100EE0006C2A00200C000020000020420000164365
:100EF0002C0000201F85EB51B81E0940782A0020E5
:100F000024000020A8290020280000200AD7A33BA5
:100F100010000020FE4890ED070AFD4880ED070A0A
:100F200090ED080AD0ED0B0AF1EE600AB4EEE00A8B
:100F3000F1EE10FA04D290ED0B0AB1EE400A0FE088
:100F4000F34890ED080AD0ED0B0AB4EEE00AF1EE9A
:100F500010FA02DD90ED0B0A02E0ED4890ED080A70
:100F6000EB4880ED080A90ED000A80ED030A90ED51
:100F7000010A80ED040A90ED020A80ED050A90ED69
:100F8000000ADFEDE40AB4EEE00AF1EE10FA02D254
:100F90009FEDE00A0FE0DE4890ED000ADFEDDE0A8B
:100FA000B4EEE00AF1EE10FA02DD9FEDDB0A02E09A
:100FB000D74890ED000AD64880ED000A90ED010A6E
:100FC000DFEDD40AB4EEE00AF1EE10FA02D29FEDA2
:100FD000D10A0FE0CE4890ED010ADFEDCF0AB4EE62
:100FE000E00AF1EE10FA02DD9FEDCB0A02E0C848FC
:100FF00090ED010AC64880ED010A90ED020ADFED8E
:10100000C50AB4EEE00AF1EE10FA02D29FEDC10A71
:101010000FE0BF4890ED020ADFEDBF0AB4EEE00A30
:10102000F1EE10FA02DD9FEDBC0A02E0B84890ED47
:10103000020AB74880ED020A90ED000AD0ED0C0AD2
:1010400030EE200AD0ED060A30EE200AD0ED150A67
:1010500020EE200A80ED120A90ED010AD0ED0D0A73
:1010600030EE200AD0ED070A30EE200AD0ED190A42
:1010700020EE200A80ED130A90ED020AD0ED0E0A50
:1010800030EE200AD0ED080A30EE200AD0ED1D0A1D
:1010900020EE200A80ED140ABDEC0E8B10BD10B5B9
:1010A0002DED048B84B0F0EE408AB0EE609AB0EE85
:1010B000418A9FED9A0AB4EEC08AF1EE10FA02D28C
:1010C0009FED960A0BE09FED960AB4EEC08AF1EE12
:1010D00010FA02DD9FED920A01E0B0EE480AB0EE90
:1010E000408AB1EE680A30EE090A30EE080A8DED4A
:1010F000000A38EE890A30EE480A8DED010A38EE12
:10110000C90A30EE080A8DED020AB1EE680A30EE27
:10111000490A30EE480A8DED030A00243BE0684698
:1011200000EB840090ED000ADFED7E0AB4EEE00AE9
:10113000F1EE10FA02D29FED7B0A13E0684600EB55
:10114000840090ED000ADFED780AB4EEE00AF1EEDB
:1011500010FA02DD9FED740A04E0684600EB84009B
:1011600090ED000A684600EB840080ED000A6846B6
:1011700000EB8400D0ED000A6C4890ED000A6C484A
:1011800090ED001A01EE200A6A4800EB840080ED21
:10119000000A601CC4B2042CC1DB67480078002838
:1011A0005FD06648007870BB002429E0614800EBFE
:1011B000840090ED000ADFED620AB4EEE00AF1EE81
:1011C00010FA02D29FED5E0A13E05A4800EB840049
:1011D00090ED000ADFED540AB4EEE00AF1EE10FAE9
:1011E00002DD9FED510A04E0524800EB840090EDCF
:1011F000000A504800EB840080ED000A601CC4B275
:10120000042CD3DB3AE0FFE7002427E0494800EB59
:10121000840090ED000AB5EEC00AF1EE10FA02D299
:101220001FEDD30A13E0434800EB840090ED000A61
:10123000DFED3D0AB4EEE00AF1EE10FA02DD9FEDBB
:101240003A0A04E03B4800EB840090ED000A39487C
:1012500000EB840080ED000A601CC4B2042CD5DBD6
:101260000CE0002408E01FEDE40A324800EB8400A3
:1012700080ED000A601CC4B2042CF4DB00240EE0F4
:101280002C4800EB840090ED000ABDEEC00A10EE81
:10129000100A00B22B4921F81400601CC4B2042CBF
:1012A000EEDB4FF47A720021264806F022FA04B0F1
:1012B000BDEC048B10BD10B52DED028BB0EE408A55
:1012C000214890ED020A5FEDFB0A30EE200A1F482C
:1012D00080ED000A90ED000ADFED1D0AB4EEE00A91
:1012E000F1EE10FA03D201201449087002E0002048
:1012F000124908701748007880B31748007870BB0F
:10130000124890ED000AB5EEC00AF1EE10FA27E09F
:10131000A82900200000B4C20000B4420000C8C3E5
:101320000000C84300007AC400007A44080000208E
:1013300010000020B82A0020B80400200C00002073
:101340000000484314000020F42B00201C00002063
:101350000000C842C43100208004002026E016E0CE
:1013600002D29FEDFB0A0FE0FA4890ED000ADFED94
:10137000FA0AB4EEE00AF1EE10FA02DD9FEDF60A89
:1013800002E0F44890ED000AF24880ED000AB7EE62
:10139000001AF2480078EF49D1ED000AB0EE480A91
:1013A00004F0B5FAEE4880ED000A2EE0ED48007832
:1013B000E8B9E84890ED000AB5EEC00AF1EE10FA7F
:1013C00002D29FEDE30A0FE0E24890ED000ADFED64
:1013D000E60AB4EEE00AF1EE10FA02DD9FEDE20A51
:1013E00002E0DC4890ED000ADA4880ED000A9FED4B
:1013F000D81ADA480078D749D1ED000AB0EE480A89
:1014000004F085FAD64880ED000AD54890ED000A30
:10141000B5EEC00AF1EE10FA02D29FEDCD0A0FE050
:10142000CF4890ED000ADFEDD10AB4EEE00AF1EE0C
:1014300010FA02DD9FEDCD0A02E0C94890ED000AE6
:10144000C74880ED000A90ED000A5FED4B0A80EE80
:10145000201AC74890ED000A71EE400A9FEDC50AB8
:1014600028EE001A90ED000A01EE200A80ED000A35
:1014700090ED000AB5EEC00AF1EE10FA02D29FED2F
:10148000B40A0FE0BA4890ED000AF7EE000AB4EE95
:10149000E00AF1EE10FA02DDB7EE000A02E0B4480D
:1014A00090ED000AB44880ED000ABDEC028B10BD3F
:1014B00000B52DED028B83B0B0EE408AAF4890EDC1
:1014C000120AF3EE0E0A80EE201A9FEDAD0A21EE0D
:1014D000000A8DED000AD0ED130AB3EE0E1A80EE6D
:1014E000810ADFEDA70A20EE200A8DED010A90EDBA
:1014F000140AF3EE0E0A80EE201A9FEDA20A21EEE6
:10150000000A8DED020A9DED000A9F4880ED000A59
:101510009DED010A80ED010A9DED020A80ED020AAF
:1015200090ED000ADFED990AB4EEE00AF1EE10FA50
:1015300002D29FED960A0FE0934890ED000ADFED8E
:10154000900AB4EEE00AF1EE10FA02DD9FED8C0A8B
:1015500002E08D4890ED000A8B4880ED000A90ED86
:10156000010ADFED8A0AB4EEE00AF1EE10FA02D2C7
:101570009FED860A0FE0844890ED010ADFED800AB6
:10158000B4EEE00AF1EE10FA02DD9FED7D0A02E012
:101590007D4890ED010A7C4880ED010A90ED020A39
:1015A000DFED7B0AB4EEE00AF1EE10FA02D29FED15
:1015B000780A0FE0744890ED020ADFED720AB4EE8B
:1015C000E00AF1EE10FA02DD9FED6E0A02E06E48CD
:1015D00090ED020A6C4880ED020ADFED6E0A80EEA3
:1015E000880A6D48D0ED0A0A6C4890ED001A70EE3A
:1015F000C10A20EE200A6A4880ED0F0ADFED650A75
:1016000080EE880A6448D0ED0B0AF1EE600A634868
:1016100090ED011A70EEC10A20EE200A604880EDBC
:10162000100ADFED5C0A80EE880A5B48D0ED0C0AF8
:10163000F1EE600A594890ED021A70EEC10A20EEF0
:10164000200A574880ED110ADFED520A80EE880A21
:10165000D0ED160A90ED0F1AFAEE041A21EE211AB7
:1016600060EE810A20EE200A80ED0C0ADFED490AC7
:1016700080EE880AD0ED1A0A90ED101AFAEE041ADC
:1016800021EE211A60EE810A20EE200A80ED0D0A7B
:10169000DFED400A80EE880AD0ED1E0A90ED111AA7
:1016A000FAEE041A21EE211A60EE810A20EE200AD9
:1016B00080ED0E0A344890ED000A3748D0ED0A0A52
:1016C00030EE600AF7EE000A20EE200A344880ED82
:1016D000000A2D4890ED010A2F48D0ED0B0A30EE9C
:1016E000200AF7EE000A20EE200A2D4880ED010ABC
:1016F000254890ED020A2848D0ED0C0A30EE200A69
:10170000F7EE000A20EE200A254880ED020A90ED4F
:10171000000AB5EEC00AF1EE10FA02DD90ED000A03
:1017200004E01F4890ED000AB1EE400ADFED140A14
:1017300080EE201A1A4880ED2D1A90ED010AB5EEC0
:10174000C00AF1EE10FA2DDD90ED010A2FE0000045
:10175000000000001C0000200000FA43B804002034
:1017600008000020800400200000AF43000048442F
:10177000200000203433FB4110000020A829002065
:101780000000964300001643902A0020000096C3F4
:10179000000016C36F12033B2C3500209C2A00204A
:1017A000E4280020FE4890ED010AB1EE400A5FED0A
:1017B0000C0A80EE201AFA4880ED2E1A90ED020AEB
:1017C000B5EEC00AF1EE10FA02DD90ED020A04E077
:1017D000F34890ED020AB1EE400A5FED160A80EE82
:1017E000201AEF4880ED2F1A90ED000AD0ED0F0A75
:1017F00030EE600AD0ED170A60EE200A90ED060A7E
:1018000000EE880A80ED060A90ED010AD0ED100A7C
:1018100030EE600AD0ED1B0A60EE200A90ED070A58
:1018200000EE880A80ED070A90ED020AD0ED110A59
:1018300030EE600AD0ED1F0A60EE200A90ED080A33
:1018400000EE880A80ED080AD64890ED000AF6EE10
:10185000000A20EE200A5FED360A20EE200AD0486A
:1018600080ED090ACF4890ED000AF6EE000A20EE5E
:10187000200A5FED3D0A20EE200AC94880ED0A0AE1
:10188000C84890ED000AF6EE000A20EE200A5FED4F
:10189000440A20EE200AC24880ED0B0A90ED060AA9
:1018A000D0ED090AF1EE600AB4EEE00AF1EE10FAAA
:1018B00004D290ED090AB1EE400A0FE0B84890ED6D
:1018C000060AD0ED090AB4EEE00AF1EE10FA02DDE4
:1018D00090ED090A02E0B24890ED060AB04880EDAA
:1018E000060A90ED070AD0ED0A0AF1EE600AB4EE9E
:1018F000E00AF1EE10FA04D290ED0A0AB1EE400AC5
:101900000FE0A74890ED070AD0ED0A0AB4EEE00A0E
:10191000F1EE10FA02DD90ED0A0A02E0A04890ED27
:10192000070A9F4880ED070A90ED080AD0ED0B0AE0
:10193000F1EE600AB4EEE00AF1EE10FA04D290ED96
:101940000B0AB1EE400A0FE0954890ED080AD0ED81
:101950000B0AB4EEE00AF1EE10FA02DD90ED0B0A8C
:1019600002E08F4890ED080A8D4880ED080A90ED5E
:10197000300AF7EE000A30EEC00AD0ED150A20EE6C
:10198000200AD0ED000A90ED0C1A70EE810A90ED5D
:10199000061A70EE810A60EE200A90ED301A824835
:1019A000D0ED2D1A9FED810A9FED812A02EE210ACA
:1019B000B5EEC00AF1EE10FA02D21FED9B0A1BE051
:1019C0007948D0ED2D1A9FED790A9FED792A02EE24
:1019D000210AF7EE001AB4EEE10AF1EE10FA02DD88
:1019E000B7EE000A08E07048D0ED2D1A9FED6F0A9F
:1019F0009FED6F2A02EE210A21EE000A6D4890ED5C
:101A0000001A40EE010AB0EE000A20EE800A644897
:101A100080ED120A90ED300AF7EE000A30EEC00AAF
:101A2000D0ED190A20EE200AD0ED010A90ED0D1A32
:101A300070EE810A90ED071A70EE810A60EE200ABE
:101A400090ED301A5848D0ED2E1A9FED580A9FEDB0
:101A5000582A02EE210AB5EEC00AF1EE10FA02D2BF
:101A60001FEDC50A1BE05048D0ED2E1A9FED4F0A1E
:101A70009FED4F2A02EE210AF7EE001AB4EEE10ABA
:101A8000F1EE10FA02DDB7EE000A08E04648D0EDAC
:101A90002E1A9FED460A9FED462A02EE210A21EEFC
:101AA000000A444890ED011A40EE010AB0EE000A27
:101AB00020EE800A3A4880ED130A90ED300AF7EEE6
:101AC000000A30EEC00AD0ED1D0A20EE200AD0ED4B
:101AD000020A90ED0E1A70EE810A90ED081A70EE6F
:101AE000810A60EE200A90ED301A2F48D0ED2F1AAF
:101AF0009FED2E0A9FED2E2A02EE210AB5EEC00AB6
:101B0000F1EE10FA02D21FEDEE0A1BE02648D0EDEE
:101B10002F1A9FED260A9FED262A02EE210AF7EEE4
:101B2000001AB4EEE10AF1EE10FA02DDB7EE000A97
:101B300008E01D48D0ED2F1A9FED1C0A9FED1C2ACE
:101B400002EE210A21EE000A1A4890ED021A40EE38
:101B5000010AB1EE000A20EE800A114880ED140A55
:101B6000B0EE480AFFF7A7FB0D48D0ED141AB0EE0F
:101B7000611AD0ED131AF0EE610AD0ED121AB0EE30
:101B8000610AFFF78CFA064890ED000A80ED030A1F
:101B900090ED010A80ED040A90ED020A0CE00000CD
:101BA000E428002010000020A82900206666E63EF8
:101BB000CDCC0C3F902A002080ED050A0C4890ED1A
:101BC0000A0A0C4880ED000A094890ED0B0AB1EEB4
:101BD000400A084880ED010A054890ED0C0AB1EE74
:101BE000400A044880ED020A03B0BDEC028B00BD40
:101BF0002C3500209C2A002070B52DED108BB0EE06
:101C0000408AB0EE60EAF0EE41EAB0EE61FAF0EE42
:101C1000429AB0EE629AF0EE438A04460D461646AA
:101C20009FEDFE0A28EE000AF3EE040A20EE200AD9
:101C3000F0EE40AAFA48D0ED080A60EEA00A90ED56
:101C4000091AD0ED091A41EE210A90ED0A1AD0EDD9
:101C50000A1A41EE210AB0EE600A00F0B1FDF14827
:101C600080ED000A90ED000AB5EEC00AF1EE10FA20
:101C700038D0EB48D0ED080AEA4890ED001A80EE23
:101C8000810AE948D0ED000A70EE600A90ED000A82
:101C90000AEEA00A80ED000AE148D0ED090AE14809
:101CA00090ED001A80EE810ADF48D0ED010A70EE57
:101CB000600A90ED010A0AEEA00A80ED010AD848F8
:101CC000D0ED0A0AD74890ED001A80EE810AD64876
:101CD000D0ED020A70EE600A90ED020A0AEEA00A48
:101CE00080ED020AD14AD049D14803F087FCCF48A1
:101CF000D0ED000A60EEA00A90ED011AD0ED011AB5
:101D000041EE210AB0EE600A00F05AFDC94880EDAC
:101D1000000AC64890ED000AB5EEC00AF1EE10FACE
:101D200036D090ED010AB5EEC00AF1EE10FA2FD0D0
:101D300090ED020AB5EEC00AF1EE10FA28D0BD48C7
:101D400090ED000AB5EEC00AF1EE10FA20D0B748C7
:101D500090ED000AB748D0ED000A80EE201AB0EEF0
:101D600041BAB24890ED010AB248D0ED000A80EEC7
:101D7000201AF0EE41BAF0EE4B0AB0EE6B0A00F01A
:101D800064FCDFEDAD0A20EE200AAC4880ED000ACD
:101D9000AB4890ED010AD0ED030A20EE200AD0ED09
:101DA000000A90ED021A00EEC10AF0EE000A20EEE1
:101DB000200A9F4880ED000AA14890ED000AD0ED6E
:101DC000010A20EE200AD0ED020A90ED031A00EE7F
:101DD000810AF0EE000A20EE200A954880ED010A03
:101DE000974890ED010A20EE000AD0ED020A90ED2E
:101DF000021A00EE810AF7EE000AB0EE001A41EE78
:101E0000400A8B48C0ED020A8E48007800285ED058
:101E10008C48007802280CD19FED8B0A8B4880ED0E
:101E2000000A9FED890A80ED010A9FED870A80ED87
:101E3000020A864890ED000A7D4890ED001ADFED19
:101E4000841AF0EE690A41EEC10A9FED821A60EE33
:101E5000810A9FED811A00EE810A7C4880ED000A1C
:101E600090ED010A724890ED011ADFED791AF0EE5B
:101E7000490A41EEC10A9FED771A60EE810A9FED93
:101E8000761A00EE810A714880ED010A90ED020A8F
:101E9000674890ED021ADFED6E1AF0EE680A41EE27
:101EA000C10A9FED6C1A60EE810A9FED6B1A00EE7D
:101EB000810A664880ED020A62480078401C614948
:101EC000087008460078522801DB002008705F483F
:101ED00090ED000A564890ED001ADFED5D1AF0EE25
:101EE000690A41EEC10A9FED5B1A11EE200A5B48B8
:101EF00080ED000A554890ED010A4D4890ED011A19
:101F0000DFED531AF0EE490A41EEC10A9FED511A76
:101F100011EE200A514880ED010A4C4890ED020A6A
:101F2000434890ED021ADFED4A1AF0EE680A41EEDE
:101F3000C10A9FED481A11EE200A484880ED020AB6
:101F400090ED000A3A48D0ED000A20EE200A4348FE
:101F5000D0ED010A364890ED011A00EE810A3F48A3
:101F6000D0ED020A324890ED021A00EE810A3C4898
:101F700080ED020A69EEA90A49EE090A48EEA80AAC
:101F8000B0EE600A00F01CFC364880ED000AF5EE69
:101F9000C09AF1EE10FA02DDB0EE690A01E0B1EE8E
:101FA000690ADFED310AB4EEE00AF1EE10FA7DD2F3
:101FB000B5EEC09AF1EE10FA02DDB0EE490A01E08A
:101FC000B1EE490ADFED280AB4EEE00AF1EE10FAAC
:101FD0006CD2F5EEC08AF1EE10FA02DDB0EE680ABE
:101FE00001E0B1EE680ADFED200AB4EEE00AF1EE9E
:101FF00010FA5BD21B4890ED000AC9EE800AF0EEA1
:10200000609A90ED000AC9EE000AB0EE609A90ED79
:10201000000AC8EE800AF0EE608A27E0C3F5C840E7
:10202000E005002050000020502B0020202B002035
:10203000D82A00204C000020333365425C00002089
:10204000300000205400002000000000442B00203D
:10205000000080455C201940CDCC4C3C382B002042
:102060002C2B0020400000200080894590ED000AC4
:10207000DFEDFE0AB4EEE00AF1EE10FA54DD90ED69
:10208000000A5FED070AB4EEE00AF1EE10FA4BD257
:10209000F74890ED020A20EE090AD0ED010A08EE99
:1020A000E00AF44880ED030AF14800E033E090EDE7
:1020B000000A20EE280AD0ED020A09EEE00AED48F7
:1020C00080ED040A1FED2B0A28EE000AF7EE000A45
:1020D00020EE20AA90ED030AD0ED060A70EE600A09
:1020E00090ED060A0AEE200A80ED060A90ED040A39
:1020F000D0ED070A70EE600A90ED070A0AEE200A9A
:1021000080ED070A90ED060A80ED000A90ED070ABF
:1021100080ED010A08E01FED340AD64880ED000A80
:102120001FED370A80ED010AD24890ED090AD0ED83
:10213000000A1FED3B1A60EE810AB0EE001A60EE55
:10214000810A00EE880A80ED090A90ED0A0AD0EDB6
:10215000010A1FED431A60EE810AB0EE001A60EE2C
:10216000810A00EE880A80ED0A0A90ED0B0AD0ED94
:10217000020A1FED4B1A60EE810AB0EE001A60EE03
:10218000810A00EE880A80ED0B0A90ED090ADFED66
:10219000BA0AB4EEE00AF1EE10FA02D29FEDB60AE6
:1021A0000FE0B44890ED090ADFEDB40AB4EEE00A9E
:1021B000F1EE10FA02DD9FEDB10A02E0AD4890EDBC
:1021C000090AAC4880ED090A90ED0A0ADFEDAA0A77
:1021D000B4EEE00AF1EE10FA02D29FEDA70A0FE08A
:1021E000A44890ED0A0ADFEDA50AB4EEE00AF1EE8C
:1021F00010FA02DD9FEDA10A02E09E4890ED0A0A66
:102200009C4880ED0A0A90ED0B0ADFED9B0AB4EEC4
:10221000E00AF1EE10FA02D29FED970A0FE095481E
:1022200090ED0B0ADFED950AB4EEE00AF1EE10FA3C
:1022300002DD9FED920A02E08E4890ED0B0A8D4878
:1022400080ED0B0A8A4890ED020AB5EEC00AF1EE65
:1022500010FA2ADD8A48007898B18A48D0ED000A41
:10226000894890ED001A70EEC10AB0EE600A00F0E5
:10227000A5FCDFED860A20EE200A854880ED000AE5
:1022800018E08048D0ED000A7F4890ED001A70EE0B
:10229000C10AB0EE600A00F091FCDFED7E0A20EE8C
:1022A000200A7B4880ED000A04E01FED990A784877
:1022B00080ED000A6F4890ED000AD0ED090A30EE7B
:1022C000200ADFED750A20EE200A694890ED001A19
:1022D0006F48D0ED001AF0EE4E0A41EE610A9FED14
:1022E0006F1A00EE810A634880ED0C0A90ED010A36
:1022F000D0ED0A0A30EE200ADFED670A20EE200A50
:102300005B4890ED011A6248D0ED001AF0EE6E0ABB
:1023100041EE610A9FED611A00EE810A554880ED99
:102320000D0A5348D0ED020A594890ED001AB0EE5C
:102330004F0A00EEC10ADFED590A20EE200A4D488F
:1023400080ED0E0A564890ED010AB1EE400A494868
:10235000D0ED0C0A20EE200A5148D0ED020A454883
:1023600090ED0D1A00EEC10A4D48D0ED030A414828
:1023700090ED0E1A00EEC10A4948D0ED000A40EE79
:10238000080AC0ED000A90ED000A3A48D0ED0C0AA8
:1023900020EE200A4248D0ED020A364890ED0E1A8F
:1023A00000EE810A3E48D0ED030A324890ED0D1A46
:1023B00000EEC10A3A48D0ED010A40EE080AC0ED2D
:1023C000010A90ED000A2B48D0ED0D0A20EE200AFC
:1023D0003348D0ED010A274890ED0E1A00EEC10AED
:1023E0002F48D0ED030A234890ED0C1A00EE810A25
:1023F0002B48D0ED020A40EE080AC0ED020A90ED2B
:10240000000A1C48D0ED0E0A20EE200A2448D0ED28
:10241000010A184890ED0D1A00EE810A2048D0ED0F
:10242000020A144890ED0C1A00EEC10A1C48D0EDC7
:10243000030A40EE080AC0ED030AD0ED000A60EE80
:10244000A00A90ED011AD0ED011A41EE210A90ED9B
:10245000021AD0ED021A41EE210A90ED031AD0EDD6
:10246000031A41EE210AB0EE600A1BE000806D45C0
:10247000D82A0020E42A002034FA0EBD34FA0E3D9A
:10248000B80400205C0000202C00002090C2753DA4
:10249000580000206766E63E9A99993E34FA8E3CD1
:1024A0003000002000F08CF95C4880ED000A5C48A8
:1024B00090ED000A5948D0ED000A80EE201A5848E5
:1024C00080ED001A90ED010A5448D0ED000A80EE2C
:1024D000201A534880ED011A90ED020A4F48D0EDC2
:1024E000000A80EE201A4E4880ED021A90ED030A91
:1024F0004A48D0ED000A80EE201A494880ED031AC0
:1025000090ED011A21EE011AD0ED021A90ED022A87
:1025100001EE821AF7EE001AB0EE002A42EE411ADE
:10252000F0EE610A90ED001AD0ED011A21EE211AA9
:10253000D0ED021A90ED032A01EE821AF0EE001A95
:1025400021EE211AB0EE410A00F07FF8DFED350AE6
:1025500020EE200A84ED000A314890ED010AD0ED0A
:10256000030A20EE200AD0ED000A90ED021A00EED8
:10257000C10AF0EE000A20EE200A10EE101A0846FA
:1025800013F0FBF841EC1D0BB0EE4D0AF0EE6D0AB6
:1025900013F02EFBB0EE40CAF0EE60CA9FED220BA6
:1025A00053EC102B51EC1C0B13F064F841EC1B0B9B
:1025B00013F026F928601A4890ED001A21EE011A4E
:1025C000D0ED011A90ED012A01EE821AF7EE001A01
:1025D000B0EE002A52EE011AF0EE610A90ED011AF7
:1025E000B1EE411AD0ED021A21EE211AD0ED001AF7
:1025F00090ED032A01EEC21AF0EE001A21EE211A24
:10260000B0EE410A00F021F8DFED060A20EE200AC4
:1026100086ED000ABDEC108B70BD00004400002068
:1026200030000020333365420000006066A64C4055
:10263000F0EE400AF5EEC00AF1EE10FA02DBB0EE61
:10264000600A7047B1EE600AFBE700B5B0EE403AB1
:10265000B0EE602AB5EEC03AF1EE10FA04D0B5EE55
:10266000C02AF1EE10FA02D19FEDFB1A99E0B0EE0C
:10267000430AFFF7DDFFF0EE403AB0EE420AFFF703
:10268000D7FFF0EE402AF4EEE23AF1EE10FA02D271
:1026900083EEA24A01E082EEA34A9FEDF00AB4EE77
:1026A000C04AF1EE10FA02D2F0EE441A2DE0DFED4E
:1026B000EC0AB6EE000A14EE200AF0EE404ABDEE37
:1026C000E40A10EE100A00EE100AB8EEC00A34EE6A
:1026D000C00AF0EE404AE34901EB800191ED000AA7
:1026E000F0EE401ADF4A411C02EB810191ED000A35
:1026F000114601EB8001D1ED000A70EE600AB0EEE8
:10270000610A00EEA40AF0EE401AF4EEE32AF1EEBC
:1027100010FA20DDB5EEC02AF1EE10FA0ADBB5EEB4
:10272000C03AF1EE10FA02DBB0EE611A39E0B1EE18
:10273000611A36E09FEDCC1AB5EEC03AF1EE10FA10
:1027400004DB31EE610AB0EE401A2AE031EEC10A34
:10275000B0EE401A25E0B5EEC03AF1EE10FA10DB0B
:102760009FEDC21AB5EEC02AF1EE10FA04DB31EE8D
:10277000610AB0EE401A14E031EE210AB0EE401AC0
:102780000FE09FEDBB1AB5EEC02AF1EE10FA04DBA4
:1027900031EE210AB0EE401A03E031EE610AB0EEEC
:1027A000401AB0EE410A00BD00B5B0EE405AF0EE5E
:1027B000605AF0EE450AB0EE650AFFF746FF00BD2D
:1027C000B0EE401AB7EE080AB0EE402AB6EE000AA4
:1027D00021EE000AF0EE401AF0EE410A10EE900AE7
:1027E000A449A1EB600000EE900A61EEA02AB7EECA
:1027F000080A02EEE00A20EE200AF0EE400A61EE3E
:10280000A02AB7EE080A02EEE00A20EE200AF0EE57
:10281000400A21EE200A704710B52DED0A8BB0EE6C
:10282000409AF0EE609A9FED940B53EC102B51EC14
:10283000190B12F0B5FF18D29FED910B53EC102B32
:1028400051EC190B12F016FF41EC1B0B9FED8E0B98
:1028500053EC102B12F067FE41EC1A0B53EC192BC2
:1028600012F008FF41EC180B17E09FED850B53ECBD
:10287000102B51EC190B12F0FDFE41EC1B0B9FEDE0
:10288000820B53EC102B12F0F2FE41EC1A0B53ECBE
:10289000192B12F0EFFE41EC180B9FED770B53EC68
:1028A000102B51EC180B12F07BFF20D29FED780B10
:1028B00053EC102B51EC180B12F035FE41EC1C0BB5
:1028C0009FED750B53EC102B12F0D4FE41EC1B0B5B
:1028D0009FED6F0B53EC102B12F025FE41EC1A0B01
:1028E00053EC182B12F0C6FE41EC180B1FE09FEDC5
:1028F000680B53EC102B51EC180B12F0B5FE41ECA9
:102900001C0B9FED670B53EC102B12F0B3FE41EC48
:102910001B0B9FED5F0B53EC102B12F004FE41ECF0
:102920001A0B53EC182B12F0A5FE41EC180BB0EE6D
:10293000480AF0EE680ABDEC0A8B10BD10B52DED0B
:10294000068BB0EE408AF0EE608A01249FED560BB4
:1029500053EC102B51EC180B12F03AFF0AD89FEDF4
:10296000520B53EC102B51EC180B12F07DFE41EC86
:10297000180BA41E204612F0EFFE41EC190BB0EE2E
:10298000480AF0EE680AFFF747FFB0EE40AAF0EE03
:1029900060AA53EC192B51EC1A0B12F06BFE41ECB0
:1029A000100BBDEC068B10BD10B52DED088BB0EEF5
:1029B000408AF0EE608A01249FED3D0B53EC102B12
:1029C00051EC180B12F0AFFD41EC180B9FED360BDC
:1029D00053EC102B51EC180B12F0FAFE0AD8A41E7F
:1029E0009FED310B53EC102B51EC180B12F03CFE09
:1029F00041EC180B204612F0AFFE41EC1A0BB0EE82
:102A0000480AF0EE680AFFF799FFB0EE40BAF0EE20
:102A100060BA53EC1A2B51EC1B0B12F02BFE41EC5D
:102A2000190B12F0EDFE00EE100ABDEC088B10BD84
:102A3000B0EE401AB5EEC01AF1EE10FA3CDD31EE00
:102A4000600AB5EEC00AF1EE10FA37D2DFED021AD5
:102A5000B0EE610A32E00000000000008180803B9F
:102A60000000804360000020DB0F4940DB0FC93FBE
:102A7000DB0FC9BFDF59375F000000000000000016
:102A8000000000602FF0D93F00000060305FF43F8D
:102A9000000000000000F03F000000C0CCCCCCBF24
:102AA000000000C0CCCCCC3FF1D4C853FB2109407E
:102AB000F1D4C853FB21F93FB0EE410A7047B0EEA4
:102AC000401AB5EEC01AF1EE10FA0BD231EE200A20
:102AD000B5EEC00AF1EE10FA06DD5FED211AB0EE98
:102AE000610A01E0B0EE410A7047F0EE401AF4EEE0
:102AF000E01AF1EE10FA09DD31EEC10AB4EEE00A97
:102B0000F1EE10FA0BD2B0EE600A08E031EE810A65
:102B1000B4EEE00AF1EE10FA01DDB0EE600A7047A3
:102B2000F0EE401AB1EE412A32EE202AB4EEE12A4C
:102B3000F1EE10FA09D231EE202AB4EEE12AF1EEDC
:102B400010FA02DDB0EE600A01E0B0EE610A7047F3
:102B500010B52DED028BB0EE408AF0EE608A9FED4D
:102B6000730B53EC102B51EC180B12F031FE0CD2FE
:102B70009FED700B53EC102B51EC180B12F074FD01
:102B800041EC100BBDEC028B10BD9FED6C0B53ECB8
:102B9000102B51EC180B12F003FE0AD29FED650BBF
:102BA00053EC102B51EC180B12F0BDFC41EC100B48
:102BB000E8E7B0EE480AF0EE680AE3E7F0EE400A14
:102BC0009FED600AF4EEC00AF1EE10FA04DD9FED0D
:102BD0005E0A30EEC00A70479FED5C0AF4EEC00A50
:102BE000F1EE10FA04D29FED580A30EE800AF2E7B7
:102BF000B0EE600AEFE7F0EE400AF5EEC00AF1EE43
:102C000010FA02DDB0EE600A01E0B1EE600A90ED6C
:102C1000041AB4EEC10AF1EE10FA0CDDF5EEC00AAA
:102C2000F1EE10FA04D291ED040AB1EE400A7047B9
:102C300091ED040AFBE7F5EEC00AF1EE10FA02DDB1
:102C4000B0EE600A01E0B1EE600A90ED031AB4EE56
:102C5000C10AF1EE10FA0CDDF5EEC00AF1EE10FA41
:102C600004D291ED030AB1EE400AE0E791ED030AC8
:102C7000DDE7F5EEC00AF1EE10FA02DDB0EE600A13
:102C800001E0B1EE600A90ED021AB4EEC10AF1EE75
:102C900010FA0CDDF5EEC00AF1EE10FA04D291ED57
:102CA000020AB1EE400AC2E791ED020ABFE7F5EE73
:102CB000C00AF1EE10FA02DDB0EE600A01E0B1EEFA
:102CC000600A90ED011AB4EEC10AF1EE10FA0CDDC3
:102CD000F5EEC00AF1EE10FA04D291ED010AB1EE60
:102CE000400AA4E791ED010AA1E7F5EEC00AF1EE72
:102CF00010FA02DDB0EE600A01E0B1EE600A90ED7C
:102D0000001AB4EEC10AF1EE10FA0CDDF5EEC00ABD
:102D1000F1EE10FA04D291ED000AB1EE400A86E716
:102D200091ED000A83E71FEDB40A80E70000000080
:102D30000080664000000000008076400000000037
:102D4000008066C0000034430000B443000034C378
:102D500070B505460C462146F74802F0A2F9214617
:102D6000F54806F0AEFD70BD70B504460D46AA20CC
:102D7000F14908704870EF2088700220C87008463A
:102D8000047145710026002005E0EB49095C3144DF
:102D9000CEB2411CC8B20628F7DBE748867107218E
:102DA000FFF7D6FF70BD70B504460D46AA20E24974
:102DB00008704870EE2088700220C87008460471C0
:102DC00045710026002005E0DB49095C3144CEB2A4
:102DD000411CC8B20628F7DBD74886710721FFF7E8
:102DE000B7FF70BD2DE9F0432DED028B83B0054692
:102DF0000E4617469846B0EE408A0024AA22214685
:102E0000641CCD4842542146641C4254042221468D
:102E1000641C425400222146641C42542146641C16
:102E200045542146641C465401979DF807202146CD
:102E3000641C42549DF806202046611CCCB2BE4959
:102E40000A549DF805202046611CCCB2BA490A54A8
:102E50009DF804202046611CCCB2B7490A54CDF835
:102E600004809DF807202046611CCCB2B2490A5468
:102E70009DF806202046611CCCB2AF490A549DF84B
:102E800005202046611CCCB2AB490A549DF80420B1
:102E90002046611CCCB2A8490A549FEDA80A28EE2E
:102EA000000ABDEEC00A10EE100A00B202909DF8B2
:102EB00009202046611CCCB29F490A549DF8082085
:102EC0002046611CCCB29C490A54201FC8704FF0A8
:102ED0000009002006E09849095C494401F0FF0917
:102EE000411CC8B2A042F6DB2046611CCCB292491C
:102EF00001F8009021469048FFF72AFF03B0BDEC8F
:102F0000028BBDE8F08370B52DED0A8B82B00546CB
:102F1000B0EE408AF0EE608AB0EE419AF0EE619A2F
:102F2000B0EE42AAF0EE62AAB0EE43BAF0EE63BA97
:102F3000B0EE44CA0024AA222146641C7E484254B2
:102F40002146641C425405F10F00C2B22146641CA4
:102F50007948425400222146641C42549FED780A6D
:102F600028EE000ABDEEC00A10EE100A00B2019071
:102F70009DF805202146641C6F4842549DF80420AA
:102F80002146641C42549FED6E0A28EE800ABDEE75
:102F9000C00A10EE100A00B201909DF805202146EB
:102FA000641C654842549DF804202046611CCCB244
:102FB00061490A549FED620A29EE000ABDEEC00A7B
:102FC00010EE100A00B201909DF805202046611C09
:102FD000CCB259490A549DF804202046611CCCB259
:102FE00055490A549FED560A29EE800ABDEEC00AE3
:102FF00010EE100A00B201909DF805202046611CD9
:10300000CCB24D490A549DF804202046611CCCB234
:1030100049490A549FED4A0A2AEE000ABDEEC00A49
:1030200010EE100A00B201909DF805202046611CA8
:10303000CCB241490A549DF804202046611CCCB210
:103040003D490A549FED3E0A2AEE800ABDEEC00AB1
:1030500010EE100A00B201909DF805202046611C78
:10306000CCB235490A549DF804202046611CCCB2EC
:1030700031490A549FED320A2BEE000ABDEEC00A18
:1030800010EE100A00B201909DF805202046611C48
:10309000CCB229490A549DF804202046611CCCB2C8
:1030A00025490A549FED260A2BEE800ABDEEC00A80
:1030B00010EE100A00B201909DF805202046611C18
:1030C000CCB21D490A549DF804202046611CCCB2A4
:1030D00019490A549FED1A0A2CEE000ABDEEC00AE7
:1030E00010EE100A00B201909DF805202046611CE8
:1030F000CCB211490A549DF804202046611CCCB280
:103100000D490A54201FC8700026002005E00A4916
:10311000095C3144CEB2411CC8B2A042F7DB204664
:10312000611CCCB204490E5421460348FFF710FE3F
:1031300002B0BDEC0A8B70BD702B00200000C842AD
:1031400000007A44F8B505460E460024AA2221461E
:10315000641CFE4842542146641C42540522214608
:10316000641C425400222146641C425400959DF880
:1031700001202146641C42549DF800202146641C15
:10318000425400969DF801202146641C42549DF84B
:1031900000202146601CC4B2EC484254201FEB4979
:1031A000C8700027002005E0E849095C3944CFB227
:1031B000411CC8B2A042F7DB2046611CCCB2E349F7
:1031C0000F542146E148FFF7C3FDF8BD7FB5002449
:1031D000AA222146641CDD4842542146641C425404
:1031E00006222146641C425400222146641C42549B
:1031F0009DF801202146641C42549DF80020214680
:10320000641C42549DF805202146641C42549DF8DC
:1032100004202046611CCCB2CC490A549DF80920F8
:103220002046611CCCB2C9490A549DF808202046AA
:10323000611CCCB2C5490A549DF80D202046611C82
:10324000CCB2C2490A549DF80C202146601CC4B27D
:10325000BE4842549DF821202046611CCCB2BB4997
:103260000A549DF820202046611CCCB2B7490A546C
:103270009DF825202046611CCCB2B4490A549DF823
:1032800024202046611CCCB2B0490A549DF8292064
:103290002046611CCCB2AD490A549DF82820204636
:1032A000611CCCB2A9490A549DF82D202046611C0E
:1032B000CCB2A6490A549DF82C202046611CCCB201
:1032C000A2490A54201FC8700025002005E09F492C
:1032D000095C2944CDB2411CC8B2A042F7DB2046AC
:1032E000611CCCB299490D5421469848FFF730FD36
:1032F0007FBD7FB50024AA222146641C9348425416
:103300002146641C425403222146641C425400227C
:103310002146641C42549DF801202146641C4254FD
:103320009DF800202146641C42549DF8052021464A
:10333000641C42549DF804202046611CCCB2834991
:103340000A549DF809202046611CCCB27F490A54DA
:103350009DF808202046611CCCB27C490A549DF897
:103360000D202046611CCCB278490A549DF80C20EF
:103370002046611CCCB275490A549DF82120204694
:10338000611CCCB271490A549DF820202146601C72
:10339000C4B26E4842549DF825202046611CCCB230
:1033A0006A490A549DF824202046611CCCB2674922
:1033B0000A549DF829202046611CCCB263490A5466
:1033C0009DF828202046611CCCB260490A549DF823
:1033D0002D202046611CCCB25C490A549DF82C205B
:1033E0002046611CCCB259490A549DF83120204630
:1033F000611CCCB255490A549DF830202046611C0E
:10340000CCB252490A549DF835202046611CCCB2FA
:103410004E490A549DF834202046611CCCB24B49D9
:103420000A54201FC8700025002005E04749095CA8
:103430002944CDB2411CC8B2A042F7DB2046611C32
:10344000CCB242490D5421464048FFF781FC7FBD74
:1034500073B50024AA222146641C3C4842542146EC
:10346000641C425407222146641C42540022214617
:10347000641C42549DF803202146641C42549DF86C
:1034800002202146641C42549DF801202146641C00
:1034900042549DF800202046611CCCB22B490A54AE
:1034A0009DF805202046611CCCB228490A549DF89D
:1034B00004202046611CCCB224490A54201FC87045
:1034C0000025002005E02149095C2944CDB2411CBA
:1034D000C8B2A042F7DB2046611CCCB21B490D5498
:1034E00021461A48FFF734FC7CBD2DE9F84F05460C
:1034F0000E4617469846DDE90AAB0024AA2221466B
:10350000641C124842542146641C42540222214643
:10351000641C425400222146641C425400959DF8CC
:1035200001202146641C42549DF800202146641C61
:10353000425400969DF801202146641C42549DF897
:1035400000202146601CC4B2004801E0702B00201E
:10355000425400979DF801202046611CCCB2FE49E0
:103560000A549DF800202046611CCCB2FA490A5446
:10357000CDF800809DF801202046611CCCB2F649B0
:103580000A549DF800202046611CCCB2F2490A542E
:10359000CDF800A09DF801202046611CCCB2EE4978
:1035A0000A549DF800202046611CCCB2EA490A5416
:1035B000CDF800B09DF801202146601CC4B2E64859
:1035C00042549DF800202146601CC4B2E248425497
:1035D0000C9800909DF801202046611CCCB2DE4979
:1035E0000A549DF800202046611CCCB2DA490A54E6
:1035F0000D9800909DF801202046611CCCB2D64960
:103600000A549DF800202046611CCCB2D2490A54CD
:103610000E9800909DF801202046611CCCB2CE4946
:103620000A549DF800202046611CCCB2CA490A54B5
:10363000002000909DF801202046611CCCB2C649B4
:103640000A549DF800202046611CCCB2C2490A549D
:10365000201FC8704FF00009002006E0BE49095C39
:10366000494401F0FF09411CC8B2A042F6DB2046E4
:10367000611CCCB2B84901F800902146B648FFF76A
:1036800067FBBDE8F88F38B50024AA222146641CE8
:10369000B14842542146641C4254F1222146641C24
:1036A000425400222146641C4254AC4890ED010A69
:1036B000BDEEC00A10EE100A00B200909DF8012085
:1036C0002146641CA44842549DF800202146641CF5
:1036D0004254A34890ED000ABDEEC00A10EE100A55
:1036E00000B200909DF801202146641C9A48425483
:1036F0009DF800202046611CCCB297490A54974897
:1037000090ED030ABDEEC00A10EE100A00B2009060
:103710009DF801202046611CCCB28F490A549DF8C7
:1037200000202046611CCCB28B490A548D4890ED94
:10373000040ABDEEC00A10EE100A00B200909DF817
:1037400001202046611CCCB283490A549DF8002018
:103750002046611CCCB280490A54824890ED100A80
:10376000BDEEC00A10EE100A00B200909DF80120D4
:103770002046611CCCB278490A549DF800202046AE
:10378000611CCCB274490A547748008800EB800071
:10379000400000B200909DF801202046611CCCB290
:1037A0006D490A549DF800202046611CCCB26A493C
:1037B0000A546E4890ED020ADFED6D0A20EE200AF1
:1037C000BDEEC00A10EE100A00B200909DF8012074
:1037D0002046611CCCB260490A549DF80020204666
:1037E000611CCCB25C490A54201FC870002500201F
:1037F00005E05949095C2944CDB2411CC8B2A04238
:10380000F7DB2046611CCCB253490D542146524887
:10381000FFF79EFA38BD30B52DED048B81B0B0EEC8
:10382000408AF0EE608AB0EE419A0024AA22214636
:10383000641C494842542146641C42540B222146D0
:10384000641C425400222146641C42549FED490AE4
:1038500028EE000ABDEEC00A10EE100A00B2009079
:103860009DF801202146641C3B4842549DF80020ED
:103870002146641C42549FED3F0A28EE800ABDEEAB
:10388000C00A10EE100A00B200909DF801202146F7
:10389000641C314842549DF800202046611CCCB283
:1038A0002D490A549FED330A29EE000ABDEEC00AE5
:1038B00010EE100A00B200909DF801202046611C15
:1038C000CCB225490A549DF800202046611CCCB298
:1038D00021490A54201FC8700025002005E01E4918
:1038E000095C2944CDB2411CC8B2A042F7DB204696
:1038F000611CCCB218490D5421461748FFF728FA2D
:1039000001B0BDEC048B30BD2DE9F0412DED048BF1
:1039100082B0B0EE408AF0EE608AB0EE419A054681
:103920000E46174600240095AA222146641C0A4828
:1039300042542146641C425401222146641C4254D4
:1039400000222146641C42549FED0B0A28EE000A17
:10395000BDEEC00A12E00000702B0020843400206D
:10396000740500209C3400206C3A0020D82A0020E6
:1039700000401C46CDCCCC3D0000C84210EE100AE1
:1039800000B201909DF805202146641CFD48425478
:103990009DF804202146641C42541FED090A28EEBC
:1039A000800ABDEEC00A10EE100A00B201909DF828
:1039B00005202146641CF34842549DF8042020460B
:1039C000611CCCB2EF490A541FED150A29EE000A1A
:1039D000BDEEC00A10EE100A00B201909DF805205D
:1039E0002046611CCCB2E7490A549DF804202046C9
:1039F000611CCCB2E3490A549DF803202046611CA7
:103A0000CCB2E0490A549DF802202046611CCCB299
:103A1000DC490A549DF801202046611CCCB2D949EA
:103A20000A549DF800202146601CC4B2D548425477
:103A30002046611CCCB2D3490E542046611CCCB246
:103A4000D0490F54201FC8704FF00008002006E036
:103A5000CC49095C414401F0FF08411CC8B2A042B6
:103A6000F6DB2046611CCCB2C64901F80080214635
:103A7000C448FFF76DF902B0BDEC048BBDE8F081DE
:103A80007FB505460024AA222146641CBD48425445
:103A90002146641C425400222146641C42542146A3
:103AA000641C42542146641C45549DF8052021465F
:103AB000641C42549DF804202146641C42549DF825
:103AC00009202046611CCCB2AE490A549DF808205A
:103AD0002046611CCCB2AB490A549DF80D2020460B
:103AE000611CCCB2A7490A549DF80C202046611CE9
:103AF000CCB2A4490A549DF821202046611CCCB2C6
:103B0000A0490A549DF820202046611CCCB29D4952
:103B10000A54201FC8700026002005E09949095C5E
:103B20003144CEB2411CC8B2A042F7DB2046611C32
:103B3000CCB294490E5421469248FFF709F97FBD53
:103B400010B586B0904800789049097890FBF1F262
:103B500001FB12018D480078401E814202D10120F4
:103B60008B494871884800788A49097890FBF1F2BE
:103B700001FB120187480078401E814202D10120DA
:103B800083498871804800788349097890FBF1F275
:103B900001FB120180480078801E814202D1012081
:103BA0007B494874784800787C49097890FBF1F2A9
:103BB00001FB120179480078401E814202D10120A8
:103BC00073490871704800787549097890FBF1F2E3
:103BD00001FB120172480078401E814202D101208F
:103BE0006B494873684800786E49097890FBF1F298
:103BF00001FB12016B480078801E814202D1012036
:103C00006349C873604800786749097890FBF1F20E
:103C100001FB120164480078801E814202D101201C
:103C20005B490874584800786049097890FBF1F2C4
:103C300001FB12015D480078C01E814202D10120C3
:103C400053498874504800785949097890FBF1F23B
:103C500001FB120156480078C01E814204D14C4835
:103C6000C07C401C4A49C87447480078401CC0B218
:103C700045490870C82801DD0020087044480078D4
:103C800038B1434A51781078FFF78DF80020404949
:103C900008703F48807848B100203D498870454809
:103CA000017845480078FFF75FF832E23848C0787D
:103CB00060B100203649C8704FF4C87364224FF4D5
:103CC000967100900420FFF7DBFE22E23048007975
:103CD000E0B100202E490871384991ED100A5FEDDE
:103CE000DB0A20EE200ABDEEC00A10EE100A3449AD
:103CF0000A780021334B93ED001A334BD3ED000AC1
:103D0000324B93ED000AFFF7FFFD02E22048807C72
:103D100060B100201E4988742D4890ED001ADFED37
:103D20002D0A9FED2C0AFFF776FDF2E11848407C42
:103D300028B1002016494874FFF7A5FCE9E11448B2
:103D40004079F0B1002012494871234890ED0A0AE9
:103D5000BDEEC00A10EE100A00B21F4991ED090A2B
:103D6000BDEEC00A10EE101A09B21B4A92ED080A05
:103D7000BDEEC00A10EE102A12B2184B93ED090ADC
:103D80002EE062E0702B002068040020690400200F
:103D90005C2B00206A0400206B0400206C040020CF
:103DA0006D0400206E0400206F04002070040020C9
:103DB0007104002065040020640400209C3400206D
:103DC000B80400202C00002028000020240000203F
:103DD0007405002000000000E00500202C350020C4
:103DE000BDEEC00A10EE103A1BB2CDE90132CDE9AA
:103DF0000310FE4890ED080ABDEEC00A10EE100A4E
:103E000000B2FA4C009094ED070ABDEEC00A10EE25
:103E1000104A23B2F54C94ED060ABDEEC00A10EE2E
:103E2000104A22B2F14C94ED050ABDEEC00A10EE24
:103E3000104A21B2ED4C94ED040ABDEEC00A10EE1A
:103E4000104A20B2FFF751FB63E1E948807950B195
:103E50000020E7498871E74A128891B2E64A106863
:103E6000FFF7F6FA55E1E248407BA8B30020E049AD
:103E7000487340F2DC52E148C08900F2DC5080B265
:103E8000DE49898901F2DC5189B2CDE90302DB48C0
:103E900005920291408900F2DC5080B2D74909892D
:103EA00001F2DC5189B2D54CCDE90010648804F2EE
:103EB000DC54A3B2D14C248804F2DC54A2B2CF4C1F
:103EC000E48804F2DC54A1B2CC4CA48804F2DC54A3
:103ED000A0B2FFF70EFA1CE1FFE7C548C07BA8B10E
:103EE0000020C349C873009001900290C44C039015
:103EF000E488A3B2C24CA488A2B2C14C6488A1B227
:103F0000BF4C2488A0B2FFF761F902E1B848007CF9
:103F100040B10020B64908744FF4E4717B20FFF7EC
:103F200011F9F6E0B248C07958B30020B049C87121
:103F3000B448D0ED1E4AB0EE644AD0ED1F4AF0EE10
:103F4000643AD0ED1D4AB0EE643AD0ED1A4AF0EE74
:103F5000642AD0ED1B4AB0EE642AD0ED194AF0EE87
:103F6000641AD0ED164AB0EE641AD0ED174AF0EE9E
:103F7000640AD0ED154AB0EE640A0120FEF7C3FFD3
:103F8000C7E09B48007A58B30020994908729E48C0
:103F9000D0ED1E4AB0EE644AD0ED1F4AF0EE643A0E
:103FA000D0ED1D4AB0EE643AD0ED1A4AF0EE642A24
:103FB000D0ED1B4AB0EE642AD0ED194AF0EE641A37
:103FC000D0ED164AB0EE641AD0ED174AF0EE640A4E
:103FD000D0ED154AB0EE640A0220FEF794FF98E097
:103FE0008348407A58B30020814948728748D0ED11
:103FF000214AB0EE644AD0ED224AF0EE643AD0EDA8
:10400000204AB0EE643AD0ED1D4AF0EE642AD0EDBD
:104010001E4AB0EE642AD0ED1C4AF0EE641AD0EDD0
:10402000194AB0EE641AD0ED1A4AF0EE640AD0EDE7
:10403000184AB0EE640A0320FEF765FF69E06C4899
:10404000807AF8B100206A4988727048D0ED251A4C
:10405000B0EE611AD0ED261AF0EE610AD0ED241A06
:10406000B0EE610A1FEDA54A5FEDA63A1FEDA73A33
:104070005FEDA82A1FEDA92A5FEDAA1A0420FEF71A
:1040800042FF46E05A48C07AC0B100205849C87281
:104090001FEDB04A5FEDB13A1FEDB23A5FEDB32AC2
:1040A0001FEDB42A5FEDB51A1FEDB61A5FEDB70A22
:1040B0001FEDB80A0520FEF726FF2AE04C48007BDA
:1040C000C0B100204A4908731FEDBE4A5FEDBF3AF8
:1040D0001FEDC03A5FEDC12A1FEDC22A5FEDC31A82
:1040E0001FEDC41A5FEDC50A1FEDC60A0620FEF7D4
:1040F0000AFF0EE03E48C07C02280AD100203C495D
:10410000C8741FEDCC0A00231A4619461846FEF75C
:1041100069FE00F0D8FF06B010BD70B52DED048B20
:1041200004460E460025002004E0215C2944CDB25F
:10413000411CC8B2711E8142F7DCA01910F8010CB5
:10414000A84202D0BDEC048B70BD2078AA2802D111
:104150006078AF2800D0F5E7A078012822D1207937
:10416000012802D1214908701CE02079022803D1DE
:1041700001201E49487015E02079032804D1012050
:104180001A49087048700DE02079042803D10120F5
:104190001F49087006E02079212802DB20792628B3
:1041A00000DD00BFA078022814D12079012806D1B3
:1041B0000F49C871087248728872C87208732079F2
:1041C000A02802D101200A49C8702079A12801D174
:1041D000FCF704FBA07803284DD10E480078012895
:1041E00002D0022000F00DFF207915E02C350020D0
:1041F0005C2B00206C3A0020C8360020E42B002005
:1042000014000020E4280020A8290020B007002086
:104210000D06002080040020617941EA0020FE495B
:104220008880A079E17941EA0020FB49C880207AA2
:10423000617A41EA0020F8490880A07AE17A41EAEF
:104240000020F5494880207B617B41EA0020F2494B
:104250000881A07BE17B41EA0020EF494881207C76
:10426000617C41EA0020EC498881A07CE17C41EA44
:104270000020E949C881A07810287DD12179090260
:1042800009B2627941EA020011F066FA41EC190BB9
:104290009FEDE20B53EC102B11F0ECF941EC180BF5
:1042A00011F0AEFADF494865A179090209B2E27955
:1042B00041EA020011F050FA41EC190B9FEDD70BC7
:1042C00053EC102B11F0D6F941EC180B11F098FAC1
:1042D000D449C865217A090209B2627A41EA02002A
:1042E00011F03AFA41EC190B9FEDCC0B53EC102B6B
:1042F00011F0C0F941EC180B11F082FAC949886538
:10430000A17A090209B2E27A41EA020011F024FA24
:1043100041EC190B9FEDC10B53EC102B11F0AAF9D6
:1043200041EC180B11F06CFABE494866217B09027A
:1043300009B2627B41EA020011F00EFA41EC190B5E
:104340009FEDB60B53EC102B11F094F941EC180BC8
:1043500011F056FA0146B348C166A17B090209B2C1
:10436000E27B41EA020011F0F7F941EC190B9FEDF5
:10437000AB0B53EC102B00E05CE011F07BF941EC4F
:10438000180B11F03DFA0146A6488166217C09020E
:1043900009B2627C41EA020011F0DEF941EC190B2E
:1043A0009FED9E0B53EC102B11F064F941EC180BB0
:1043B00011F026FA9B494867A17C090209B2E27C08
:1043C00041EA020011F0C8F941EC190B9FED930B83
:1043D00053EC102B11F04EF941EC180B11F010FAC0
:1043E00001469048C167217D090209B2627D41EA18
:1043F000020011F0B1F941EC190B9FED880B53EC61
:10440000102B11F037F941EC180B11F0F9F90146B6
:10441000844881678448807838B90120824988704F
:10442000A0788249087082480570FCF7D1F9012014
:1044300080490880A07811287DD12179090209B22C
:10444000627941EA020011F087F941EC190B9FED06
:10445000730B53EC102B11F00DF941EC180B11F00C
:10446000CFF975494865A179090209B2E27941EAB3
:10447000020011F071F941EC190B9FED680B53EC40
:10448000102B11F0F7F841EC180B11F0B9F96A494B
:10449000C865217A090209B2627A41EA020011F084
:1044A0005BF941EC190B9FED5D0B53EC102B11F0F8
:1044B000E1F841EC180B11F0A3F95F498865A17A86
:1044C000090209B2E27A41EA020011F045F941EC31
:1044D000190B9FED520B53EC102B11F0CBF841EC64
:1044E000180B11F08DF954494866217B090209B275
:1044F000627B41EA020011F02FF941EC190B9FEDAC
:10450000470B53EC102B11F0B5F841EC180B11F0E0
:1045100077F901464848C166A17B090209B2E27BEE
:1045200041EA020011F018F941EC190B9FED3B0B29
:1045300053EC102B00E05CE011F09CF841EC180B00
:1045400011F05EF901463C488166217C090209B2FE
:10455000627C41EA020011F0FFF841EC190B9FED7B
:104560002F0B53EC102B11F085F841EC180B11F0C8
:1045700047F931494867A17C090209B2E27C41EA66
:10458000020011F0E9F841EC190B9FED240B53ECFC
:10459000102B11F06FF841EC180B11F031F90146B6
:1045A0002548C167217D090209B2627D41EA020006
:1045B00011F0D2F841EC190B9FED180B53EC102BB6
:1045C00011F058F841EC180B11F01AF901461A488D
:1045D00081671548807838B9012013498870A07820
:1045E0001249087012480570FCF7F2F801201149D1
:1045F0000880A07812287CD12179090209B2627959
:1046000041EA020011F0A8F841EC190B9FED030BF1
:1046100053EC102B12E00000A22B0020FCA9F1D2D9
:104620004D62503FE42800205C2B002064040020F1
:104630006504002066040020A829002011F01AF863
:1046400041EC180B11F0DCF8D4490866A179090295
:1046500009B2E27941EA020011F07EF841EC190B4F
:104660001FED120B53EC102B11F004F841EC180B5A
:1046700011F0C6F8C9498866217A090209B2627A3E
:1046800041EA020011F068F841EC190B1FED1D0B17
:1046900053EC102B10F0EEFF41EC180B11F0B0F8BA
:1046A000BE494866A17A090209B2E27A41EA0200EB
:1046B00011F052F841EC190B1FED280B53EC102BA5
:1046C00010F0D8FF41EC180B11F09AF8B3490867C5
:1046D000217B090209B2627B41EA020011F03CF839
:1046E00041EC190B1FED330B53EC102B10F0C2FFF4
:1046F00000E070E041EC180B11F082F8A7498867E0
:10470000A17B090209B2E27B41EA020011F024F820
:1047100041EC190B1FED3F0B53EC102B10F0AAFFCF
:1047200041EC180B11F06CF89C494867217C090298
:1047300009B2627C41EA020011F00EF841EC190B5B
:104740001FED4A0B53EC102B10F094FF41EC180BAB
:1047500011F056F89149C1F88000A17C090209B214
:10476000E27C41EA020010F0F7FF41EC190B1FED6B
:10477000550B53EC102B10F07DFF41EC180B11F092
:104780003FF88649C1F88800217D090209B2627D9F
:1047900041EA020010F0E0FF41EC190B1FED610B44
:1047A00053EC102B10F066FF41EC180B11F028F8B9
:1047B0007A49C1F884007A48807838B9012078496C
:1047C0008870A0787749087077480570FCF700F882
:1047D000012076490880A078132854D12179090254
:1047E00009B2627941EA020010F0B6FF41EC190B00
:1047F0001FED760B53EC102B10F03CFF41EC180B27
:1048000010F0FEFF6549C1F89000A179090209B2D4
:10481000E27941EA020010F09FFF41EC190B1FED15
:10482000810B53EC102B10F025FF41EC180B10F00E
:10483000E7FF5A49C1F89800217A090209B2627A61
:1048400041EA020010F088FF41EC190B1FED8D0BBF
:1048500053EC102B10F00EFF41EC180B10F0D0FFB2
:104860004E49C1F894004E48807838B901204C492F
:104870008870A0784B4908704B480570FBF7A8FF7B
:1048800001204A490880A07814280AD14448807839
:1048900038B9012042498870A078424908704248DE
:1048A0000570A07815280AD13D48807838B90120D4
:1048B0003B498870A0783B4908703B48057000BFB1
:1048C00040E410B504463A48007838B9AA2C05D11E
:1048D000012037490870374804705DE0344800789B
:1048E000012807D1AF2C05D1022031490870314889
:1048F000447051E02E480078022807D1F12C05DAE7
:1049000003202B4908702B48847045E02848007824
:1049100003280CD1322C0ADA0420254908702548D6
:10492000C4702548047000202449087034E02048F1
:104930000078042819D120480078002815DD1E4889
:104940000078401E1C4908701C4800781B490978F3
:10495000491C1A4A1170001D16490C54164800785B
:10496000D0B905201249087016E0114800780528D2
:104970000FD100200E49087010480078001D0D4925
:104980000C540E480078401DC1B20A48FFF7C5FB21
:1049900002E000200649087010BD0000B0070020AA
:1049A0005C2B0020640400206504002066040020C5
:1049B00074040020B22B0020720400207304002035
:1049C0000246002007E0FE4B1B5632F8133021F858
:1049D0001030431CD8B20828F5DB7047F94890ED39
:1049E000021ADFEDF91AB4EEE11AF1EE10FA55D21F
:1049F0000120F6490870F34890ED031ADFEDF21A32
:104A0000B4EEE11AF1EE10FA1AD2F148B0F9000052
:104A1000401CC8B3EF480078B0B3ED48B0F90000CF
:104A200001EE100AB8EEC11ADFEDEB1A01EE801AA2
:104A3000BDEEC11A11EE100A00B2E549088032E05D
:104A4000E04890ED031ADFEDE51AB4EEE11AF1EE5D
:104A500010FA1ADDDE48B0F90000401CA0B1DD48B4
:104A6000007888B9DA48B0F9000001EE100AB8EE13
:104A7000C11ADFEDD91A01EE801ABDEEC11A11EE8E
:104A8000100A00B2D24908800DE0D148B0F9000008
:104A9000401C40B90020CE49088004E00020CC49E9
:104AA0000880CA490870CA48B0F90000B0F5967F7E
:104AB00012DD4FF0FF30C6490880C648007840B983
:104AC0000120C44908700220C5494870C5490870D2
:104AD00002E00020BF490870BA4890ED021ADFEDED
:104AE000BA1AB4EEE11AF1EE10FA37D290ED031AC9
:104AF000DFEDB51AB4EEE11AF1EE10FA2ED290ED18
:104B0000001ADFEDB61AB4EEE11AF1EE10FA25DD67
:104B100090ED011ADFEDB11AB4EEE11AF1EE10FAE0
:104B20001CDDB148B0F90000B0F5FA6F12DAAE48FA
:104B3000B0F9000001EE100AB8EEC11ADFEDA61AB6
:104B400001EE801ABDEEC11A11EE100A00B2A6499C
:104B5000088006E00120A549087002E00020A24973
:104B600008809C48007888B39848007801282ED1A6
:104B7000F5EEC00AF1EE10FA02DDB0EE601A01E0C7
:104B8000B1EE601ADFED9A1AB4EEE11AF1EE10FA06
:104B90001DD29848B0F90000B0F5FA6F12DA9548C6
:104BA000B0F9000001EE100AB8EEC11ADFED8A1A62
:104BB00001EE801ABDEEC11A11EE100A00B28D4945
:104BC000088007E000208349087003E0FFE7002029
:104BD0008849088070473FB5B0EE402A05468648B0
:104BE0000078012804D185492846FFF7E9FE07E04F
:104BF00081480078022803D180498148FFF7E0FE10
:104C00000024E7E17D4830F8140040F6C4118842E2
:104C100005DC7A4830F81400B0F5FA7F07DA012095
:104C2000784908550020784921F8140012E07648A8
:104C300030F81400401C744921F81400084630F87C
:104C40001400C82806DD4FF4FA6021F81400002093
:104C50006C49085568480078012803D066480078F8
:104C600002287CD16748005D0028FAD1634830F8FB
:104C7000140000B22DF814006448005D002877D1BC
:104C80003DF91400624931F91410401A00EE100A7F
:104C9000B8EEC01A5F4830F914005D4931F91410BC
:104CA000401A00EE100AB8EEC00AC1EE000A9FEDED
:104CB0004A1A9FED590A10EE810ABDEEC00A10EEA5
:104CC000100A00B210F5FA7F01DA54484CE03DF9C1
:104CD00014004F4931F91410401A00EE100AB8EED2
:104CE000C01A4C4830F91400494931F91410401ADF
:104CF00000EE100AB8EEC00AC1EE000A9FED361AA7
:104D00009FED450A10EE810ABDEEC00A10EE100AB2
:104D100000B2B0F5FA7F02DD4FF4FA7024E03DF9FD
:104D200014003B4931F91410401A00EE100AB8EE95
:104D3000C01A384830F91400354931F91410401AB6
:104D400000EE100AB8EEC00AC1EE000A9FED221A6A
:104D50009FED310A10EE810ABDEEC00A01E0B0E01D
:104D600006E010EE100A00B22D4921F81400A8E068
:104D70003DF91400264931F91410401A00EE100ACA
:104D8000B8EEC01A234830F91400214931F9141043
:104D9000401A00EE100AB8EEC00AC1EE000A9FEDFC
:104DA0000E1A9FED1D0A10EE810ABDEEC00A10EE2C
:104DB000100A00B210F5FA7F34DA18487CE00000DF
:104DC00078040020F42B00200000C8C3B9040020A0
:104DD000BA040020B804002000007A440000C84350
:104DE0002C35002054000020BC0400200D060020BB
:104DF00000009643BE04002080040020242C0020E4
:104E0000A22B002081040020142C0020AC040020E0
:104E10009C0400208C0400200000FA430CFEFFFFDD
:104E2000E42B00203DF91400794931F91410401A9F
:104E300000EE100AB8EEC01A764830F91400744932
:104E400031F91410401A00EE100AB8EEC00AC1EE93
:104E5000000A1FED1F1A1FED100A10EE810ABDEEA9
:104E6000C00A10EE100A00B2B0F5FA7F02DD4FF46E
:104E7000FA7021E03DF91400654931F91410401A27
:104E800000EE100AB8EEC01A624830F9140060490A
:104E900031F91410401A00EE100AB8EEC00AC1EE43
:104EA000000A1FED331A1FED240A10EE810ABDEE31
:104EB000C00A10EE100A00B2404200B2564921F872
:104EC00014009FED560A22EE000A554880ED000AB4
:104ED0003DF9140000EE100AB8EEC00A514800EB8C
:104EE0008400D0ED000A30EE600AB5EEC00AF1EEA3
:104EF00010FA0DDD3DF9140000EE100AB8EEC00AFC
:104F0000484800EB8400D0ED000A30EE600A0EE065
:104F10003DF9140000EE100AB8EEC00A414800EB5B
:104F20008400D0ED000A30EE600AB1EE400ADFEDF9
:104F30003E0AB4EEE00AF1EE10FA1DD2364830F91E
:104F4000140000EE100AB8EEC00A364800EB8400E8
:104F5000D0ED000A70EE600A324800EB840090ED5C
:104F6000000A2F4890ED001A01EE200A2D4800EBB0
:104F7000840080ED000A20E0274830F9140000EE9C
:104F8000100AB8EEC00A274800EB8400D0ED000AF2
:104F900070EE600A234800EB840090ED000A204880
:104FA00090ED001AF6EE001A21EE211A01EE200A09
:104FB0001C4800EB840080ED000A1C48007838B9DA
:104FC0001B48007820B99FED1B0A164880ED020AA5
:104FD000601CC4B2082CFFF615AE1748D0ED000ACD
:104FE000B0EE420AFFF7FAFC14480088401C80B279
:104FF00012490880C82803DD002008800B4908708A
:105000003FBD0A49087000210C4A1180704700001A
:105010009C0400208C040020E42B002034337B42CD
:10502000B4040020F42B00200000C84280040020BB
:10503000B80400200000FAC3740500208A04002090
:105040000DF094BC7047002070470020704700208E
:1050500070470020704700207047002070470020F4
:1050600070470020704700207047002070470020E4
:1050700070470020704700207047002070470DF0F7
:105080009CBC704700207047002070470DF0E0BACC
:105090007047000010B50CF0DFFC01200CF0E7FCBD
:1050A00010BD70B5024600200AE0145C864B1D78E6
:1050B0001B785B1C844E3370844B5C55431CD8B208
:1050C0008842F2DB70BD10B57F48007880490978CE
:1050D00088425BDD7C4800787D490978401A3F288A
:1050E0001BDB00207B4908703F207B4908700020B3
:1050F0000BE077490A780978491C754B1970734998
:105100008A5C754B411C5A54C8B23F28F1DB4022DF
:10511000714900200DF037FD9FE06E480078401C7B
:105120006C490870084600786C4909788842F3D1C8
:105130000020684908706448007865490978401A79
:1051400065490870002015E05F490978604A1278C7
:10515000891A814208DD5E49097801445B4A525C44
:105160005D4B411C5A5403E000225B4B411C5A54D6
:10517000411CC8B23F28E7DB534800785449087007
:105180004022554900200DF0FEFC66E04E480078B4
:105190004F490978884260DA4D480078C0F5807040
:1051A0004949097808443F281BDB00204949087019
:1051B0003F204949087000200BE045490A780978EA
:1051C000491C434B197041498A5C434B411C5A545A
:1051D000C8B23F28F1DB40223F4900200DF0D3FC4C
:1051E0003BE03C480078401C3A490870084600788B
:1051F0003A490978884230D100203649087034484D
:10520000007840423049097808443349087000204A
:1052100018E02F490978C1F580712B4A12781144A2
:10522000814209DD2A4909780144C9B2274A525C02
:10523000294B411C5A5403E00022274B411C5A546D
:10524000411CC8B23F28E4DB1F48007820490870A1
:105250004022214900200DF096FC10BD10B50446F7
:10526000012C02D0032C11D10EE059B923B1012B2E
:1052700005D0022B04D100E000BF402010BD00BFCC
:1052800000BF00BF00BF01E00120F7E700BF002022
:10529000F4E72DE9F0470646884614469946089FEC
:1052A000022E02D0032E0CD10AE0012504E0605D3D
:1052B000FFF707FB681CC5B22078A842F7DA00E0C8
:1052C00000BF00BFBDE8F087CB040020582F0020AE
:1052D000CA040020CC04002058300020C90400205B
:1052E00010B5054810F018F9022101EB4000C0B2DA
:1052F00010BD0248704700009C300020B5300020EF
:105300009FEDFA2A20EE822A62EE012AB7EE003AD9
:1053100083EE222AF7EE002A32EE222AB7EE003A76
:10532000C3EE022A90ED032A31EEC22A90ED003A34
:1053300032EE433A90ED002A02EE832A80ED002AF5
:1053400090ED032A31EEC22A22EE022A80ED012AD4
:1053500090ED012AD0ED002A90ED003A02EE832A6A
:10536000B5EEC02AF1EE10FA02D1DFEDE12A0DE030
:1053700090ED002A22EE023A90ED012AD0ED002AAB
:10538000D0ED003A02EEA32AC3EE022AF5EEC02ABF
:10539000F1EE10FA02D2DFEDD62A45E090ED012AB7
:1053A000D0ED002A90ED003A02EE832AB5EEC02A35
:1053B000F1EE10FA02D1DFEDCE2A0DE090ED002AD9
:1053C00022EE023A90ED012AD0ED002AD0ED003A0B
:1053D00002EEA32AC3EE022AB7EE002AF4EEC22A96
:1053E000F1EE10FA02DDF7EE002A1DE090ED012A41
:1053F000D0ED002A90ED003A02EE832AB5EEC02AE5
:10540000F1EE10FA02D1DFEDBA2A0DE090ED002A9C
:1054100022EE023A90ED012AD0ED002AD0ED003ABA
:1054200002EEA32AC3EE022AC0ED022A90ED022A60
:1054300022EE002ADFEDAD2A22EE222A22EE012AF8
:10544000F7EE002A82EE823AB7EE002A33EE022A05
:10545000B7EE003AC3EE022A90ED032A31EEC23ACB
:1054600090ED032A02EE832A80ED032A704730B5BF
:105470000C4615886D1CADB21580A54201DB0025D8
:105480001580158800EB8505D5ED000A158800EB21
:10549000850585ED000A70EE601A01EE104AB8EE3F
:1054A000412A81EE821AD3ED001A31EE211A83EDE2
:1054B000001A93ED001AD3ED001A70EE611A9FEDF9
:1054C0008D2A02EE211A83ED001A30BD2DE9F04736
:1054D00004460E469C460027B94633461088401CB9
:1054E00080B21080984201DB002010801188108863
:1054F00044F820C0581E884222DD19E054F82100EB
:1055000000EE900AB8EEE00A481C54F8200044F877
:105510002100FDEEC00A10EE900A01F1010A44F8E4
:105520002A000127481C81B2581E884200D106E09B
:1055300054F821A0481C54F820008245DEDC00BF4E
:10554000002923DD1AE054F8210000EE900AF8EE5D
:10555000E00AB0EE600A481E54F8200044F821002A
:10556000FDEEC00A10EE900AA1F1010A44F82A00EB
:105570004FF0FF37481E81B201B906E054F821A070
:10558000481E54F820008245DDDB00BF108820B99A
:10559000012F02D1581E10800CE0B2F800A0581E56
:1055A000824504D1781C10B90020108002E01088D8
:1055B000C01B108000EE903AF8EE600AB5EE001ABB
:1055C00060EE810AFCEEE00A10EE900A1FFA80F805
:1055D000002506E008EB050054F820008144681C13
:1055E00085B203EBD37AB5EB6A0FF3DB9A4603EB94
:1055F000DA70401099FBF0F0BDE8F08770B5044612
:105600000D461646D4ED020A60EEA00A94ED011A8A
:10561000D4ED011A41EE210AB0EE600AFDF7D0F890
:10562000354880ED000AD4ED020A60EEA00A94ED40
:10563000001AD4ED001A41EE210AB0EE600AFDF71F
:10564000BFF82E4880ED000A94ED020AB5EEC00ABC
:10565000F1EE10FA02D24FF0FF3000E001202849AD
:10566000087095ED000A2448D0ED000A60EE200A8B
:1056700094ED001A084690F9000000EE100AB8EE0A
:10568000C00A21EE000A95ED021A40EE410AC6ED6D
:10569000000A084690F9000000EE100AB8EEC00AB1
:1056A0001648D0ED000A20EE200AD5ED010A20EEC2
:1056B000200AD4ED010A95ED021A00EEC10A86ED2A
:1056C000010A94ED000AD5ED000A20EE200AD4ED7F
:1056D000010A95ED011A00EE810AD4ED020A95ED5A
:1056E000021A00EE810A86ED020A70BDC3F5C840B9
:1056F00000000000ACC52737D4040020D8040020E7
:10570000D0040020F0EE400A40B9F84991ED050AB6
:10571000F74981ED000A0021F64A1170F64909782F
:1057200001290FD1F549097861B9F549897801292D
:1057300008D1F449097829B9EE49097811B901214C
:10574000EC4A1170EB490978012902D002291FD1D6
:1057500007E0ED490978012902D10221E54A1170DB
:1057600017E0E24991ED050AE14991ED001A30EEAA
:10577000410A9FEDE61AB4EEC10AF1EE10FA06DD19
:10578000DC490978022902D10321DA4A117000BFED
:1057900000BF00BFD7490978022905D19FEDDC0A77
:1057A000DC4981ED000A0CE0D2490978032908D1CF
:1057B000D84991ED000A9FEDD61A01EE600A81EDFD
:1057C000000AD44991ED000AB5EEC00AF1EE10FAD4
:1057D00002D29FEDD10A0FE0CE4991ED000A9FED74
:1057E000CF1AB4EEC10AF1EE10FA02DD9FEDCB0A3A
:1057F00002E0C84991ED000AC64981ED000AC0499E
:105800008978C04A1170C34991ED000A70479FED35
:10581000C40AC44880ED000AC34890ED180ADFEDC1
:10582000C30A20EE200ABF4880ED010A9FEDBA0AA4
:1058300080ED020A9FEDB80A80ED030A9FEDB60ADB
:1058400080ED040A9FEDB40A80ED050A9FEDB80AC9
:1058500080ED060AB44890ED180AF7EE080A20EE2B
:10586000200AB44880ED000AAF4890ED1A0ADFED37
:10587000AA0A20EE200AAF4880ED010A9FEDA60A91
:1058800080ED020AA84890ED190ADFEDAB0A20EE80
:10589000200AA84880ED030AB3EE040A80ED040A4A
:1058A0009FEDA60A80ED050AB6EE000A80ED060A15
:1058B0009D4890ED1C0AF7EE080A20EE200AA04849
:1058C00080ED000A984890ED1E0ADFED930A20EE65
:1058D000200A9B4880ED010A934890ED1D0ADFEDF8
:1058E000940A20EE200A964880ED020A9FED8C0A69
:1058F00080ED030AB3EE040A80ED040AB6EE000A56
:1059000080ED050A9FED840A80ED060A704710B508
:105910002DED068BB0EE408AB0EE609A0446F0EEB4
:10592000418A84B9002087490870874908709FED33
:105930007A0AF0EE408A9FED780A844880ED000AEA
:10594000002071490870824890ED000A38EEC00AC4
:10595000B5EEC00AF1EE10FA04DD90ED000A38EE63
:10596000C00A06E07A4890ED000A38EEC00AB1EEAF
:10597000400AF6EE000AB4EEE00AF1EE10FA1BDD82
:10598000724890ED000AF2EE040AB4EEE00AF1EE7D
:1059900010FA0ED26F4890ED000ADFED6F0AB4EEF8
:1059A000E00AF1EE10FA04DD9FED6C0A674880ED25
:1059B000000A6748C0ED008ADFED540A79EE600AFC
:1059C000B0EE600A9FED661ADFED530AFDF78DF821
:1059D000B0EE40AAB2EE041ADFED4F0AFDF7A0F8D0
:1059E0005C4880ED000A90ED000AB5EEC00AF1EEC9
:1059F00010FA25DDD0ED000A9FED5A1A80EE810ADB
:105A0000DFED590A20EE200A584880ED000A51487F
:105A100090ED000ADFED560AB4EEE00AF1EE10FA5E
:105A200022DD01204749087037480078E0B901209D
:105A3000354908709FED4F0A444880ED000A13E095
:105A400040480078012801D13F4908704148D0ED15
:105A5000000A9FED441A80EE810ADFED470A20EE2E
:105A6000200A424880ED000A404890ED000ADFED30
:105A7000430AB4EEE00AF1EE10FA02D29FED3F0ABB
:105A80000FE03A4890ED000ADFED370AB4EEE00A85
:105A9000F1EE10FA02DD9FED340A02E0334890ED9A
:105AA000000A324880ED000A9FED350A68EE000AD0
:105AB000B7EE001A81EE200AF7EE000A30EE200A57
:105AC000F7EE000A80EE801A90ED000ADFED2A0A58
:105AD000C0EE201AF5EEC01AF1EE10FA52DDD0ED4C
